:02000002D0002C
:1040000000400D0014540D00000006000C000501D6
:084010000401BD0B00000000DB
:044018008C510D00BA
:10401C0009480A49884208B505D0094A824202D0AB
:10402C00121A01F037F80748074A0021121A01F05A
:10403C003FF8014808BD00BFBCE5032084530D00C8
:10404C0024E6032024E60320F0E7032070B5074E96
:10405C00074C00F06DFCA41BA4080025A54200D160
:10406C0070BD56F8043B98470135F7E750530D00E7
:10407C0074530D0000F096B808B500F0D7F8BDE801
:10408C00084000F017BC00F0C5BA00F0CBBA0078BD
:10409C00B0FA80F04009704701230370704708B5EF
:1040AC00072000F08BFFB0FA80F14909072000F0DF
:1040BC006CFF7D2000F0C4FBF2E710B504460068ED
:1040CC0008B100F0AFFA204610BD0000F8B5184F4B
:1040DC00184E00F037FD394600F068FB33680133A9
:1040EC00336000F02FFD0021022000F00FFA00F0E9
:1040FC0015F900F027FD3468002C054615DA2D2142
:10410C0000F058FB61420A22284600F062FB284668
:10411C0000F053FB0021022000F0F8F900F006F942
:10412C004FF4FA7000F08CFBD3E72146EBE700BFAD
:10413C00A0510D0034E6032070B5194E00F0E4FFD9
:10414C00642490FBF4F101FB140400F0FBFC00214F
:10415C00022000F0DBF900F0E1F800F0F3FC31464E
:10416C0000F024FB00F0EEFC002C054615DA2D21A6
:10417C0000F020FB61420A22284600F02AFB284668
:10418C0000F01BFB0021022000F0C0F900F0CEF87B
:10419C004FF47A7000F054FBD0E72146EBE700BFF8
:1041AC00AB510D0037B50121072000F0DDFE0024D6
:1041BC004FF480650121032000F0D6FE124B134909
:1041CC0013480222CDE9004500F090F8114B12493A
:1041DC0012480222CDE9004500F088F81049114B35
:1041EC0011480222CDE9004500F080F800F0AAFC4D
:1041FC004FF4165100F096FC00F0A4FC00F096FC75
:10420C000028F9D003B030BD45410D00B6510D006A
:10421C0038E60320D9400D00C4510D003CE60320C4
:10422C00D4510D00AB400D0040E603207047000058
:10423C0038B50A4C0A4BA360002503202560A580E5
:10424C00A57100F04BF90749074A204600F00AFF18
:10425C0029460120BDE8384000F050B928E603207B
:10426C000000FFFFC7400D0024E6032008B5024BF9
:10427C001B689B68019308BD6802030008B5024BDC
:10428C001B68DB68019308BD6802030008B5024B8C
:10429C001B689B68019308BD2C02030008B5024BF8
:1042AC001B68DB68019308BD2C02030008B5024BA8
:1042BC001B681B69019308BD2C02030008B5024B57
:1042CC001B685B69019308BD2C02030008B5024B07
:1042DC001B685B68019308BD1802030008B5024B0C
:1042EC001B685B69019308BD1802030008B5024BFB
:1042FC001B685B68019308BD4802030008B5024BBC
:10430C001B685B6C019308BD4802030008B5024BA7
:10431C001B689B6C019308BD4802030008B5024B57
:10432C001B68DB6C019308BD4802030008B5024B07
:10433C001B685B6D019308BD4802030008B5024B76
:10434C001B685B69019308BD6402030008B5024B4E
:10435C001B681B68019308BD3C02030008B5024BA7
:10436C001B68DB68019308BD3C02030008B5024BD7
:10437C001B681B69019308BD3C02030008B5024B86
:10438C001B685B69019308BD3C02030008B5024B36
:10439C001B689B69019308BD3C02030008B5024BE6
:1043AC001B68DB69019308BD3C02030008B5024B96
:1043BC001B681B6A019308BD3C02030008B5024B45
:1043CC001B689B6A019308BD3C02030008B5024BB5
:1043DC001B681B6A019308BD2802030008B5024B39
:1043EC001B685B6A019308BD2802030008B5024BE9
:1043FC001B689B6A019308BD2802030008B5024B99
:10440C001B68DB6A019308BD2802030008B5024B48
:10441C001B681B6B019308BD2802030008B5024BF7
:10442C001B685B6B019308BD2802030008B5024BA7
:10443C001B681B6C019308BD2802030008B5024BD6
:10444C001B68DB69019308BD3002030008B5024B01
:10445C001B681B6A019308BD3002030008B5024BB0
:10446C001B681B68019308BD4C02030008B5024B86
:10447C001B685B68019308BD4C02030008B5024B36
:10448C001B681B69019308BD4C02030008B5024B65
:10449C001B685B69019308BD4C02030008B5024B15
:1044AC001B689B69019308BD4C02030008B5024BC5
:1044BC001B68DB69019308BD4C02030008B5024B75
:1044CC001B681B6A019308BD4C02030008B5024B24
:1044DC001B689B6A019308BD4C02030008B5024B94
:1044EC001B685B68019308BD2002030008B5024BF2
:1044FC001B685B69019308BD2002030008B5024BE1
:10450C001B68DB6A019308BD2002030008B5024B4F
:10451C001B685B6B019308BD2002030008B5034BBD
:10452C001B68D3F88830019308BD000020020300FB
:10453C0008B5034B1B68D3F89430019308BD0000F9
:10454C002002030008B5024B1B685B68019308BD91
:10455C004002030008B5024B1B689B68019308BD21
:10456C004002030008B5024B1B68DB68019308BDD1
:10457C004002030008B5024B1B681B69019308BD80
:10458C004002030008B5024B1B685B69019308BD30
:10459C004002030008B5024B1B689B69019308BDE0
:1045AC004002030008B5024B1B68DB69019308BD90
:1045BC004002030008B5024B1B681B6A019308BD3F
:1045CC004002030008B5024B1B681B6B019308BD2E
:1045DC004002030008B5024B1B685B6B019308BDDE
:1045EC004002030008B5024B1B681B6C019308BD0D
:1045FC004002030008B5024B1B685B6C019308BDBD
:10460C004002030008B5024B1B68DB6B019308BD2D
:10461C004402030008B5024B1B681B68019308BDDC
:10462C001C02030008B5024B1B685B68019308BDB4
:10463C001C02030008B5024B1B685B6C019308BDA0
:10464C001C020300002240681146FFF7B3BF002292
:10465C0040681146FFF7BEBF40680022FFF7B2BFAB
:10466C004068002281F00101FFF79CBF00234068E5
:10467C001A461946FFF78EBF002340681A461946A2
:10468C00FFF780BF002240681146FFF773BF00227E
:10469C0040681146FFF75EBF406800220221FFF719
:1046AC0061BF002340681A46FFF74CBF024B032240
:1046BC005A60024A1A60704744E60320E4510D0028
:1046CC0010B5044608462170FFF7B8FE002363605E
:1046DC00204610BD10B5094B094C022200201A606F
:1046EC00084B2060A080A071A360FFF7F7FE204666
:1046FC00054A0649BDE8104000F0B4BC58E603205A
:10470C004CE603200000FFFF24E60320C7400D0009
:10471C0010B50446006808B1FFF7F8FD204610BD3F
:10472C0010B58368044613B103220146984720460E
:10473C0010BD000010B5064C002320462360FFF787
:10474C00DDFD2046034A0449BDE8104000F08ABC58
:10475C005CE6032024E603201D470D00F8B5064651
:10476C000D468F180024BD420CD0336815F8011B80
:10477C009B6830469847031E01DB1C44F3E7002C72
:10478C0008BF1C462046F8BD13B50446084659B16F
:10479C00019100F0EDFC23680199DB68024620468C
:1047AC0002B0BDE81040184702B010BD08B5FFF7C5
:1047BC00EBFF08BD03689B68184738B50D2105460B
:1047CC00FFF7F8FF0A2104462846FFF7F3FF2044C1
:1047DC0038BD30B58BB000238DF82430012A98BF3A
:1047EC000A2209AC0D46B1FBF2F101FB125303F0A6
:1047FC00FF03092B94BF30333733DBB2AA4204F8E2
:10480C00013DEFD92146FFF7BFFF0BB030BD0023B0
:10481C0040681A461946FFF7B5BE0000014B024A24
:10482C001A60704760E6032018520D00024B1A689C
:10483C00024B1A60704700BFBCE5032064E60320FE
:10484C000021FFF753BE10B50446FFF769FF204661
:10485C0010BD00000348044A04490023836000F0A3
:10486C0001BC00BF68E6032024E6032053480D007A
:10487C00014B1860704700BFC0E5032008B50B4B17
:10488C0043B100F05FF903681B699847002801DD0C
:10489C00AFF30080064B43B100F0D2F903681B69FB
:1048AC009847002801DDAFF3008008BD0000000030
:1048BC000000000008B5FFF7E1FFFFF70FFD014B0B
:1048CC00186008BDD4E703200248034A0349121AB2
:1048DC0000F0E0BB00F4032004F4032080530D002F
:1048EC0007B5002300931A466FF07701FFF720FEFF
:1048FC0003B05DF804FB000007B543880A2B08D011
:10490C00502B0BD1094B1B684BB103B05DF804EB7A
:10491C001847FFF7E5FF03B05DF804FB0023009395
:10492C001A466FF07701FFF703FEF4E77CE60320ED
:10493C0038B5124C1248134D0021FFF77BFE23684B
:10494C00AB42114B0CBF012200221A7002D0FFF7B0
:10495C00BBFF2560FFF7BAFC044600F0B1FB0B4B24
:10496C0013B12046AFF3008000210848FFF74AFE40
:10497C00BDE8384006480021FFF7D0BD00F4032005
:10498C007D480D001E1C279A78E6032000000000CD
:10499C0005490D00704710B51821044600F067FB5F
:1049AC00204610BDF0B5037D062B8DB00E4600F1F0
:1049BC0004074FF0000412D000F1080515F8011D92
:1049CC000A223046FFF705FFAF42044419D0002CF1
:1049DC00F4D02E213046FFF7EDFE0444EEE72F23F2
:1049EC006A4639460A208DF80040FFF7A7FC684656
:1049FC0000F0BEFB33680246DB68694630469847D8
:104A0C00044620460DB0F0BD10B5054B04461122EE
:104A1C0040F8043B002100F04BFB204610BD00BFCA
:104A2C0040520D000346074A10B543F8042B01F120
:104A3C00100251F8044B43F8044B9142F9D10A7817
:104A4C001A7010BD40520D0010B59DF8084044EA94
:104A5C00032343EA024242EA0161042341600375E5
:104A6C0010BD000013B5054B0360CB7800938B7819
:104A7C004A780978FFF7E8FF02B010BD40520D00EC
:104A8C0041747047704708B50021007CFFF706FDA4
:104A9C0040EAE07008BD08B50121007CFFF7FEFC80
:104AAC0040EAE07008BD08B5007CFFF7EFFC20EA97
:104ABC00E07008BD08B5007CFFF7E0FC20EAE07070
:104ACC0008BD13B50446007C0191FFF7DFFC0028FC
:104ADC00019901DC607C20B1207CFFF7E7FC20EA27
:104AEC00E07002B010BD007CFFF7E8BC10B51421DB
:104AFC00044600F0BCFA204610BD000010B54FF47F
:104B0C007A73044608460021C4E90113044B236060
:104B1C000123207463741146FFF7A0FC204610BDDE
:104B2C0054520D00007C0022FFF7A0BC007CFFF764
:104B3C00CDBC10B514220446002100F0B9FA204671
:104B4C0010BD000010B5104C88B003A8FFF7F1FFA2
:104B5C002178BFF35B8F11F0010111D12046019137
:104B6C00FFF795FA019958B103AA0848FFF7C6FF59
:104B7C002046FFF791FA064A0649044800F072FAFB
:104B8C00024808B010BD00BF80E6032084E6032075
:104B9C0024E60320914A0D0070474174704708B514
:104BAC00007CFFF70BFC20EAE07008BD08B5007C28
:104BBC00FFF7DCFB20EAE07008BD08B5007CFFF7CE
:104BCC00E5FB40EAE07008BD08B5007CFFF7D6FBBA
:104BDC0040EAE07008BD007CFFF7E0BB37B5457CD0
:104BEC0004462DB1207C03B0BDE83040FFF7B6BBC6
:104BFC00007C0191FFF7E2FB00280199F2DC2846CA
:104C0C0003B030BD10B51421044600F030FA204634
:104C1C0010BD000010B54FF0000C044608461146BC
:104C2C004FF47A72C4E901C2044A22600122207452
:104C3C0062741A46FFF78AFB204610BD84520D00A1
:104C4C0013B50E4C2178BFF35B8F11F0010112D11B
:104C5C0020460191FFF71BFA019960B1084A094BF4
:104C6C000948FFF7D7FF2046FFF716FA074A08490D
:104C7C00054800F0F7F9044802B010BD98E603208F
:104C8C009CE6032020E70320A4E7032024E603206E
:104C9C00A54B0D007047F8B5064615460C468F1807
:104CAC00BC4206D0336814F8011B9B683046984709
:104CBC00F6E72846F8BD007C0022FFF787BB007C96
:104CCC000021FFF78BBB007C0021FFF78FBB007C22
:104CDC000021FFF793BB007C0021FFF797BB10B5B9
:104CEC001421044600F0C3F9204610BD10B54FF452
:104CFC007A73044608460021C4E90113034B236070
:104D0C0020741146FFF792FB204610BDB4520D00E3
:104D1C00002240681146FFF72DBC00224068114666
:104D2C00FFF748BC002240681146FFF753BC4068AF
:104D3C000022FFF747BC4068002281F00101FFF719
:104D4C0031BC002340681A461946FFF723BC0022E9
:104D5C0040681146FFF7FEBB406800220221FFF7B6
:104D6C0001BC002340681A46FFF7ECBB024B04223F
:104D7C005A60024A1A607047B8E70320DC520D00F3
:104D8C00002340681A46FFF7DDBB40680022022171
:104D9C00FFF7E8BB002240681146FFF7DBBB00229F
:104DAC0040681146FFF7E6BB002340681A461946D7
:104DBC00FFF7E8BB002340681A461946FFF7EABB29
:104DCC0040680021FFF70EBC40680021FFF712BCC1
:104DDC004068002281F00101FFF7E4BB406800222B
:104DEC00FFF7F0BB002240681146FFF7F3BB00222F
:104DFC0040681146FFF7DEBB2DE9F043002495B067
:104E0C0016460D460746FFF7FFFD214618220EA851
:104E1C00009400F04DF94023CDE90C3421466B464B
:104E2C000CAA3046FFF72AFA044600284CD1024659
:104E3C0001216868FFF79EFB0221804622466868C4
:104E4C00FFF798FB009E81462146002E3CD000299E
:104E5C003AD17368022B03D00A2B11D0F669F4E710
:104E6C00B8F1000F0AD0716906A8043107ADFFF73D
:104E7C00F9FD0FCD3C1D0FC42B6823704146EDE7A7
:104E8C00B9F1000F01D14946E8E77469102201A875
:104E9C0000F00EF906238DF8143001AD04F108036F
:104EAC001834186859682A4603C20833A3421546B9
:104EBC00F7D101A906A807ADFFF7B4FD0FCD3C1D36
:104ECC000FC42B682370DEE70098FFF7CFF9384644
:104EDC0015B0BDE8F0830000024B034A1A600022B3
:104EEC005A607047C0E7032018530D00232813B5F0
:104EFC0002D9002002B010BDA0F10B03022B1AD86E
:104F0C00174C2178BFF35B8F11F001010BD12046B8
:104F1C000191FFF7BCF8019928B11248FFF7D0FBBB
:104F2C002046FFF7B9F80F4B1878FFF78FFA0028D7
:104F3C00DFD10120DEE7012809D800F06BF8002151
:104F4C00007CFFF76BFA80F00100C0B2D2E70938A1
:104F5C000128EED8FFF774FE007CFFF727FAF2E782
:104F6C00C8E70320CCE70320232838B504460D46B8
:104F7C000AD8FF2908D0FFF7B9FF28B129462046E7
:104F8C00BDE83840FFF782B938BD38B504460D4648
:104F9C00FFF784F9FF2810D0062804D84D2323FAF4
:104FAC0000F0C30709D42046FFF7A0FF28B129461B
:104FBC002046BDE83840FFF779B938BD10B5044636
:104FCC00FFF76CF9031FDBB2012B08D92046FFF762
:104FDC008DFF20B12046BDE81040FFF76FB90020CF
:104FEC0010BD000038B5002320254380142304464F
:104FFC000380856005610649284600F03AF80449AB
:10500C006060284600F035F8E060204638BD00BFEF
:10501C004C530D0030B50F4D2978BFF35B8F11F059
:10502C00010487B013D12846FFF731F878B101A8F5
:10503C00FFF7D8FF01AA21460748FFF757FE28467D
:10504C00FFF72AF8054A0649034800F00BF8024816
:10505C0007B030BDD8E70320DCE7032024E60320AB
:10506C00A14C0D000B460146184600F005B8FFF7A1
:10507C000CB8FFF708B8000010B5054C13462CB15E
:10508C000A4601460220AFF3008010BD2046FCE723
:10509C00000000000A44914200F1FF3300D1704738
:1050AC0010B511F8014B03F8014F9142F9D110BD25
:1050BC0002440346934200D1704703F8011BF9E701
:1050CC0038B50D4B1D68AB6B04467BB91820FFF748
:1050DC00A1FA0A4A0A4BA863C0E90023094B836072
:1050EC000B23838101220023C0E90423AB6B002234
:1050FC001C615A6138BD00BFC0E503200E33CDAB37
:10510C0034126DE6ECDE0500134B10B51C68A36B76
:10511C007BB91820FFF77EFA104A114BA063C0E947
:10512C000023104B83600B23838101220023C0E9F1
:10513C000423A16B0C480A694B690C4C504304FBCB
:10514C000300A2FB04345A1C044444F10000C1E9DE
:10515C00042020F0004010BDC0E503200E33CDAB81
:10516C0034126DE6ECDE05002DF451582D7F954C74
:10517C00034613F8012B002AFBD1181A013870478B
:10518C001D400D0059400D0081400D0085400D0063
:10519C000000000054687265616420323A200054AB
:1051AC00687265616420313A200052616E646F6DE3
:1051BC00206E756D62657200496E6372656D656E09
:1051CC00742076616C756500466C61736800000034
:1051DC000000000000000000AF460D00A5460D00C9
:1051EC009B460D0091460D0085460D0079460D003D
:1051FC00CD4D0D00D54D0D006D460D0065460D00D5
:10520C005B460D0051460D00054E0D00617070009F
:10521C0025592D256D2D25645425483A254D3A25C3
:10522C0053257A0061736374696D6500000000009A
:10523C0000000000B1490D00A1490D00A3490D006B
:10524C000000000000000000914A0D00F94A0D001A
:10525C00CF4A0D0069470D00C14A0D00934A0D005D
:10526C00A34A0D00F34A0D00B34A0D008D4A0D0000
:10527C000000000000000000A54B0D00114C0D00BB
:10528C00E94B0D0069470D00B94B0D00D54B0D00D6
:10529C00C74B0D00E34B0D00A74B0D00AB4B0D00A6
:1052AC000000000000000000A14C0D00EB4C0D00B4
:1052BC00C34C0D00A34C0D00CB4C0D00D34C0D007A
:1052CC00DB4C0D00E34C0D00000000000000000062
:1052DC006F4D0D00654D0D005B4D0D001D4D0D000E
:1052EC001B480D004F4D0D00CD4D0D00D54D0D0043
:1052FC00434D0D003B4D0D00314D0D00274D0D0064
:10530C00054E0D0000000000000000008D4D0D004A
:10531C00974D0D00A14D0D00AB4D0D00B54D0D0081
:10532C00C14D0D00CD4D0D00D54D0D00DD4D0D00C9
:10533C00E94D0D00F14D0D00FB4D0D00054E0D001E
:10534C00000000003D420D00B9460D00E1460D0085
:10535C0041470D0029480D0039480D0061480D00EA
:10536C00794D0D00E54E0D0000000000000000001E
:04537C00000000002D
:045380000000000029
:1053840030520D00C4E503200000000000000000BE
:105394000000000000000000000000000000000009
:1053A40000000000000000000000000000000000F9
:1053B40000000000000000000000000000000000E9
:1053C40000000000000000000000000000000000D9
:1053D40000000000000000000000000000000000C9
:0853E4000000000000000000C1
:1053EC00FFFFFFFF00000102030405060708090A7E
:1053FC000B0C0D0E0F101112131415161718191A79
:08540C001B1C1D1E1F202800BF
:045414007856341280
:04000003D000401CCD
:00000001FF
